{
  "transactions": [
    {
      "hash": "0x715f7b5fe5e40d3fbb984664dcf464b86bfb9f9a1da40f2aa741b38826cb4f07",
      "transactionType": "CALL",
      "contractName": "DungeonCore",
      "contractAddress": "0x6c900a1cf182aa5960493bf4646c9efc8eaed16b",
      "function": "setHeroContract(address)",
      "arguments": [
        "0x52A0Ba2a7efB9519b73E671D924F03575fA64269"
      ],
      "transaction": {
        "from": "0x84cd63a840274d267acb19e708d7f6298c315e75",
        "to": "0x6c900a1cf182aa5960493bf4646c9efc8eaed16b",
        "gas": "0x1025e",
        "value": "0x0",
        "input": "0xd2ac0f5900000000000000000000000052a0ba2a7efb9519b73e671d924f03575fa64269",
        "nonce": "0x117",
        "chainId": "0x38"
      },
      "additionalContracts": [],
      "isFixedGasLimit": false
    },
    {
      "hash": "0x98abc7287e32804c17f5ba7a1efc63aa8449eab3c7f9cd271e92905ff2b3eb33",
      "transactionType": "CALL",
      "contractName": "DungeonCore",
      "contractAddress": "0x6c900a1cf182aa5960493bf4646c9efc8eaed16b",
      "function": "setRelicContract(address)",
      "arguments": [
        "0x04c6bc2548B9F5C38be2bE0902259D428f1FEc2b"
      ],
      "transaction": {
        "from": "0x84cd63a840274d267acb19e708d7f6298c315e75",
        "to": "0x6c900a1cf182aa5960493bf4646c9efc8eaed16b",
        "gas": "0x10197",
        "value": "0x0",
        "input": "0xb2a4750000000000000000000000000004c6bc2548b9f5c38be2be0902259d428f1fec2b",
        "nonce": "0x118",
        "chainId": "0x38"
      },
      "additionalContracts": [],
      "isFixedGasLimit": false
    },
    {
      "hash": "0x54ad66191603972b1fad117fe7e081cb668cd883c90aedebf8ef158760d4bd15",
      "transactionType": "CALL",
      "contractName": "DungeonCore",
      "contractAddress": "0x6c900a1cf182aa5960493bf4646c9efc8eaed16b",
      "function": "setPartyContract(address)",
      "arguments": [
        "0x73953a4daC5339b28E13C38294E758655E62DFDe"
      ],
      "transaction": {
        "from": "0x84cd63a840274d267acb19e708d7f6298c315e75",
        "to": "0x6c900a1cf182aa5960493bf4646c9efc8eaed16b",
        "gas": "0x10ded",
        "value": "0x0",
        "input": "0x33b16c2800000000000000000000000073953a4dac5339b28e13c38294e758655e62dfde",
        "nonce": "0x119",
        "chainId": "0x38"
      },
      "additionalContracts": [],
      "isFixedGasLimit": false
    },
    {
      "hash": "0xf3967cffdc2060010702a5adc77deebe486f03b423fb0506a3c088c70062018b",
      "transactionType": "CALL",
      "contractName": "DungeonCore",
      "contractAddress": "0x6c900a1cf182aa5960493bf4646c9efc8eaed16b",
      "function": "setPlayerProfile(address)",
      "arguments": [
        "0xEa827e472937AbD1117f0d4104a76E173724a061"
      ],
      "transaction": {
        "from": "0x84cd63a840274d267acb19e708d7f6298c315e75",
        "to": "0x6c900a1cf182aa5960493bf4646c9efc8eaed16b",
        "gas": "0x10d4c",
        "value": "0x0",
        "input": "0x0d803ebc000000000000000000000000ea827e472937abd1117f0d4104a76e173724a061",
        "nonce": "0x11a",
        "chainId": "0x38"
      },
      "additionalContracts": [],
      "isFixedGasLimit": false
    },
    {
      "hash": "0xbcc335ef27f309f916a8130465822d806ed68d581a633908d0b5fc4a4168eb13",
      "transactionType": "CALL",
      "contractName": "DungeonCore",
      "contractAddress": "0x6c900a1cf182aa5960493bf4646c9efc8eaed16b",
      "function": "setVipStaking(address)",
      "arguments": [
        "0xd82ef4be9e6d037140bD54Afa04BE983673637Fb"
      ],
      "transaction": {
        "from": "0x84cd63a840274d267acb19e708d7f6298c315e75",
        "to": "0x6c900a1cf182aa5960493bf4646c9efc8eaed16b",
        "gas": "0xff85",
        "value": "0x0",
        "input": "0x56064444000000000000000000000000d82ef4be9e6d037140bd54afa04be983673637fb",
        "nonce": "0x11b",
        "chainId": "0x38"
      },
      "additionalContracts": [],
      "isFixedGasLimit": false
    },
    {
      "hash": "0x337515d3a743d8b249baf4a6323e73dae97f63ba760420f7a7023d0e3e57832a",
      "transactionType": "CALL",
      "contractName": "DungeonCore",
      "contractAddress": "0x6c900a1cf182aa5960493bf4646c9efc8eaed16b",
      "function": "setPlayerVault(address)",
      "arguments": [
        "0x81Dad3AF7EdCf1026fE18977172FB6E24f3Cf7d0"
      ],
      "transaction": {
        "from": "0x84cd63a840274d267acb19e708d7f6298c315e75",
        "to": "0x6c900a1cf182aa5960493bf4646c9efc8eaed16b",
        "gas": "0x1016b",
        "value": "0x0",
        "input": "0x9956971e00000000000000000000000081dad3af7edcf1026fe18977172fb6e24f3cf7d0",
        "nonce": "0x11c",
        "chainId": "0x38"
      },
      "additionalContracts": [],
      "isFixedGasLimit": false
    },
    {
      "hash": "0x00431b34461f99dd7f7aba6132571cec8f8d103c7131759dc3f7e72b0ffd29d6",
      "transactionType": "CALL",
      "contractName": "DungeonCore",
      "contractAddress": "0x6c900a1cf182aa5960493bf4646c9efc8eaed16b",
      "function": "setDungeonMaster(address)",
      "arguments": [
        "0xa573CCF8332A5B1E830eA04A87856a28C99D9b53"
      ],
      "transaction": {
        "from": "0x84cd63a840274d267acb19e708d7f6298c315e75",
        "to": "0x6c900a1cf182aa5960493bf4646c9efc8eaed16b",
        "gas": "0x11172",
        "value": "0x0",
        "input": "0xc77ebc95000000000000000000000000a573ccf8332a5b1e830ea04a87856a28c99d9b53",
        "nonce": "0x11d",
        "chainId": "0x38"
      },
      "additionalContracts": [],
      "isFixedGasLimit": false
    },
    {
      "hash": "0xad092cea881189068cdd4c47257377d015d213654890235a8e64e12109b2af62",
      "transactionType": "CALL",
      "contractName": "DungeonCore",
      "contractAddress": "0x6c900a1cf182aa5960493bf4646c9efc8eaed16b",
      "function": "setAltarOfAscension(address)",
      "arguments": [
        "0x1357C546CE8Cd529A1914e53f98405E1eBFbFC53"
      ],
      "transaction": {
        "from": "0x84cd63a840274d267acb19e708d7f6298c315e75",
        "to": "0x6c900a1cf182aa5960493bf4646c9efc8eaed16b",
        "gas": "0x10ece",
        "value": "0x0",
        "input": "0x60637b040000000000000000000000001357c546ce8cd529a1914e53f98405e1ebfbfc53",
        "nonce": "0x11e",
        "chainId": "0x38"
      },
      "additionalContracts": [],
      "isFixedGasLimit": false
    },
    {
      "hash": "0xe5c422d04b7637b60aaa3928b4dff372cc69c7cded8024e14f5f77749f4ed622",
      "transactionType": "CALL",
      "contractName": "DungeonCore",
      "contractAddress": "0x6c900a1cf182aa5960493bf4646c9efc8eaed16b",
      "function": "setVRFManager(address)",
      "arguments": [
        "0xCD6baD326c68ba4f4c07B2d3f9c945364E56840c"
      ],
      "transaction": {
        "from": "0x84cd63a840274d267acb19e708d7f6298c315e75",
        "to": "0x6c900a1cf182aa5960493bf4646c9efc8eaed16b",
        "gas": "0x1006c",
        "value": "0x0",
        "input": "0x7a33eabc000000000000000000000000cd6bad326c68ba4f4c07b2d3f9c945364e56840c",
        "nonce": "0x11f",
        "chainId": "0x38"
      },
      "additionalContracts": [],
      "isFixedGasLimit": false
    },
    {
      "hash": "0x959dd0939bea5e393c360be2f2bb9a7666370aae5d6b3a2350c3e0b1d649c9a1",
      "transactionType": "CALL",
      "contractName": "DungeonCore",
      "contractAddress": "0x6c900a1cf182aa5960493bf4646c9efc8eaed16b",
      "function": "setDungeonStorage(address)",
      "arguments": [
        "0x8878A235d36F8a44F53D87654fdFb0e3C5b2C791"
      ],
      "transaction": {
        "from": "0x84cd63a840274d267acb19e708d7f6298c315e75",
        "to": "0x6c900a1cf182aa5960493bf4646c9efc8eaed16b",
        "gas": "0xa3ce",
        "value": "0x0",
        "input": "0x6eb5d3610000000000000000000000008878a235d36f8a44f53d87654fdfb0e3c5b2c791",
        "nonce": "0x120",
        "chainId": "0x38"
      },
      "additionalContracts": [],
      "isFixedGasLimit": false
    },
    {
      "hash": "0x68516e43931ad8b0ca229590c0941fb1d807c4156d31ef5363b8dcacd2d661f5",
      "transactionType": "CALL",
      "contractName": "Hero",
      "contractAddress": "0x52a0ba2a7efb9519b73e671d924f03575fa64269",
      "function": "setDungeonCore(address)",
      "arguments": [
        "0x6C900a1Cf182aA5960493BF4646C9EFC8eaeD16b"
      ],
      "transaction": {
        "from": "0x84cd63a840274d267acb19e708d7f6298c315e75",
        "to": "0x52a0ba2a7efb9519b73e671d924f03575fa64269",
        "gas": "0x13170",
        "value": "0x0",
        "input": "0x6ab1b29b0000000000000000000000006c900a1cf182aa5960493bf4646c9efc8eaed16b",
        "nonce": "0x121",
        "chainId": "0x38"
      },
      "additionalContracts": [],
      "isFixedGasLimit": false
    },
    {
      "hash": "0x86864adc0b32580730c887d8ef609215b9b52143f37ea483eabc7252ae3eab4f",
      "transactionType": "CALL",
      "contractName": "Relic",
      "contractAddress": "0x04c6bc2548b9f5c38be2be0902259d428f1fec2b",
      "function": "setDungeonCore(address)",
      "arguments": [
        "0x6C900a1Cf182aA5960493BF4646C9EFC8eaeD16b"
      ],
      "transaction": {
        "from": "0x84cd63a840274d267acb19e708d7f6298c315e75",
        "to": "0x04c6bc2548b9f5c38be2be0902259d428f1fec2b",
        "gas": "0x1203a",
        "value": "0x0",
        "input": "0x6ab1b29b0000000000000000000000006c900a1cf182aa5960493bf4646c9efc8eaed16b",
        "nonce": "0x122",
        "chainId": "0x38"
      },
      "additionalContracts": [],
      "isFixedGasLimit": false
    },
    {
      "hash": "0xfe6475ba2c10d26415aa80c2df0ec3c5f6a7affdb28afe912ece1b71e0408eb2",
      "transactionType": "CALL",
      "contractName": "Party",
      "contractAddress": "0x73953a4dac5339b28e13c38294e758655e62dfde",
      "function": "setDungeonCore(address)",
      "arguments": [
        "0x6C900a1Cf182aA5960493BF4646C9EFC8eaeD16b"
      ],
      "transaction": {
        "from": "0x84cd63a840274d267acb19e708d7f6298c315e75",
        "to": "0x73953a4dac5339b28e13c38294e758655e62dfde",
        "gas": "0x100ce",
        "value": "0x0",
        "input": "0x6ab1b29b0000000000000000000000006c900a1cf182aa5960493bf4646c9efc8eaed16b",
        "nonce": "0x123",
        "chainId": "0x38"
      },
      "additionalContracts": [],
      "isFixedGasLimit": false
    },
    {
      "hash": "0x4834de3b389792f78a36ba199f32d438512c77929a3c74021ef5464b62aeee6f",
      "transactionType": "CALL",
      "contractName": "PlayerProfile",
      "contractAddress": "0xea827e472937abd1117f0d4104a76e173724a061",
      "function": "setDungeonCore(address)",
      "arguments": [
        "0x6C900a1Cf182aA5960493BF4646C9EFC8eaeD16b"
      ],
      "transaction": {
        "from": "0x84cd63a840274d267acb19e708d7f6298c315e75",
        "to": "0xea827e472937abd1117f0d4104a76e173724a061",
        "gas": "0x10867",
        "value": "0x0",
        "input": "0x6ab1b29b0000000000000000000000006c900a1cf182aa5960493bf4646c9efc8eaed16b",
        "nonce": "0x124",
        "chainId": "0x38"
      },
      "additionalContracts": [],
      "isFixedGasLimit": false
    },
    {
      "hash": "0xe6b309e7d3137f19b1668ade8cf2820844b65ea9b79a305b2745ae03464c2189",
      "transactionType": "CALL",
      "contractName": "VIPStaking",
      "contractAddress": "0xd82ef4be9e6d037140bd54afa04be983673637fb",
      "function": "setDungeonCore(address)",
      "arguments": [
        "0x6C900a1Cf182aA5960493BF4646C9EFC8eaeD16b"
      ],
      "transaction": {
        "from": "0x84cd63a840274d267acb19e708d7f6298c315e75",
        "to": "0xd82ef4be9e6d037140bd54afa04be983673637fb",
        "gas": "0x1004c",
        "value": "0x0",
        "input": "0x6ab1b29b0000000000000000000000006c900a1cf182aa5960493bf4646c9efc8eaed16b",
        "nonce": "0x125",
        "chainId": "0x38"
      },
      "additionalContracts": [],
      "isFixedGasLimit": false
    },
    {
      "hash": "0x7be9b764b69c299ebb4e814d4a6c4418dd3471df7c41464323524bb6379888d3",
      "transactionType": "CALL",
      "contractName": "PlayerVault",
      "contractAddress": "0x81dad3af7edcf1026fe18977172fb6e24f3cf7d0",
      "function": "setDungeonCore(address)",
      "arguments": [
        "0x6C900a1Cf182aA5960493BF4646C9EFC8eaeD16b"
      ],
      "transaction": {
        "from": "0x84cd63a840274d267acb19e708d7f6298c315e75",
        "to": "0x81dad3af7edcf1026fe18977172fb6e24f3cf7d0",
        "gas": "0x1018e",
        "value": "0x0",
        "input": "0x6ab1b29b0000000000000000000000006c900a1cf182aa5960493bf4646c9efc8eaed16b",
        "nonce": "0x126",
        "chainId": "0x38"
      },
      "additionalContracts": [],
      "isFixedGasLimit": false
    },
    {
      "hash": "0xade65c165de5e1f239dc5332e92ba5810d312d689eb3c044fcf874062e1e8574",
      "transactionType": "CALL",
      "contractName": null,
      "contractAddress": "0xa573ccf8332a5b1e830ea04a87856a28c99d9b53",
      "function": "setDungeonCore(address)",
      "arguments": [
        "0x6C900a1Cf182aA5960493BF4646C9EFC8eaeD16b"
      ],
      "transaction": {
        "from": "0x84cd63a840274d267acb19e708d7f6298c315e75",
        "to": "0xa573ccf8332a5b1e830ea04a87856a28c99d9b53",
        "gas": "0x10e59",
        "value": "0x0",
        "input": "0x6ab1b29b0000000000000000000000006c900a1cf182aa5960493bf4646c9efc8eaed16b",
        "nonce": "0x127",
        "chainId": "0x38"
      },
      "additionalContracts": [],
      "isFixedGasLimit": false
    },
    {
      "hash": "0x37a0600e132b09a2993895392ce4e0ae89cdf59833100610de2bcb2c8916b05c",
      "transactionType": "CALL",
      "contractName": null,
      "contractAddress": "0x1357c546ce8cd529a1914e53f98405e1ebfbfc53",
      "function": "setDungeonCore(address)",
      "arguments": [
        "0x6C900a1Cf182aA5960493BF4646C9EFC8eaeD16b"
      ],
      "transaction": {
        "from": "0x84cd63a840274d267acb19e708d7f6298c315e75",
        "to": "0x1357c546ce8cd529a1914e53f98405e1ebfbfc53",
        "gas": "0x21828",
        "value": "0x0",
        "input": "0x6ab1b29b0000000000000000000000006c900a1cf182aa5960493bf4646c9efc8eaed16b",
        "nonce": "0x128",
        "chainId": "0x38"
      },
      "additionalContracts": [],
      "isFixedGasLimit": false
    },
    {
      "hash": "0x1ced61e164f91d113edbea39b86f807decafad3e4dccc861c54b94c3df276518",
      "transactionType": "CALL",
      "contractName": "VRFConsumerV2Plus",
      "contractAddress": "0xcd6bad326c68ba4f4c07b2d3f9c945364e56840c",
      "function": "setDungeonCore(address)",
      "arguments": [
        "0x6C900a1Cf182aA5960493BF4646C9EFC8eaeD16b"
      ],
      "transaction": {
        "from": "0x84cd63a840274d267acb19e708d7f6298c315e75",
        "to": "0xcd6bad326c68ba4f4c07b2d3f9c945364e56840c",
        "gas": "0x108a2",
        "value": "0x0",
        "input": "0x6ab1b29b0000000000000000000000006c900a1cf182aa5960493bf4646c9efc8eaed16b",
        "nonce": "0x129",
        "chainId": "0x38"
      },
      "additionalContracts": [],
      "isFixedGasLimit": false
    },
    {
      "hash": "0x6ce213de257e3e1869e4dd461a304501cd016a233a48b7ab0344bf78a34cefa7",
      "transactionType": "CALL",
      "contractName": "VRFConsumerV2Plus",
      "contractAddress": "0xcd6bad326c68ba4f4c07b2d3f9c945364e56840c",
      "function": "setAuthorizedContract(address,bool)",
      "arguments": [
        "0xa573CCF8332A5B1E830eA04A87856a28C99D9b53",
        "true"
      ],
      "transaction": {
        "from": "0x84cd63a840274d267acb19e708d7f6298c315e75",
        "to": "0xcd6bad326c68ba4f4c07b2d3f9c945364e56840c",
        "gas": "0x115bf",
        "value": "0x0",
        "input": "0xf2fa7392000000000000000000000000a573ccf8332a5b1e830ea04a87856a28c99d9b530000000000000000000000000000000000000000000000000000000000000001",
        "nonce": "0x12a",
        "chainId": "0x38"
      },
      "additionalContracts": [],
      "isFixedGasLimit": false
    },
    {
      "hash": "0xb19f39745df2010d745b190ffce63439a612931eed626e0cf3728ef8d2ebe21e",
      "transactionType": "CALL",
      "contractName": "VRFConsumerV2Plus",
      "contractAddress": "0xcd6bad326c68ba4f4c07b2d3f9c945364e56840c",
      "function": "setAuthorizedContract(address,bool)",
      "arguments": [
        "0x1357C546CE8Cd529A1914e53f98405E1eBFbFC53",
        "true"
      ],
      "transaction": {
        "from": "0x84cd63a840274d267acb19e708d7f6298c315e75",
        "to": "0xcd6bad326c68ba4f4c07b2d3f9c945364e56840c",
        "gas": "0x115bf",
        "value": "0x0",
        "input": "0xf2fa73920000000000000000000000001357c546ce8cd529a1914e53f98405e1ebfbfc530000000000000000000000000000000000000000000000000000000000000001",
        "nonce": "0x12b",
        "chainId": "0x38"
      },
      "additionalContracts": [],
      "isFixedGasLimit": false
    }
  ],
  "receipts": [
    {
      "status": "0x1",
      "cumulativeGasUsed": "0x11e4c22",
      "logs": [
        {
          "address": "0x6c900a1cf182aa5960493bf4646c9efc8eaed16b",
          "topics": [
            "0x66bc4bfd56f2104006bad233fc730445bafcda57858bcb241c43fe70a19ac73c",
            "0x00000000000000000000000052a0ba2a7efb9519b73e671d924f03575fa64269"
          ],
          "data": "0x",
          "blockHash": "0x3bd2274ae6db52862bbc64e4e8a27493075e2b594ba0fae5c7df5c907478601d",
          "blockNumber": "0x3af2084",
          "transactionHash": "0x715f7b5fe5e40d3fbb984664dcf464b86bfb9f9a1da40f2aa741b38826cb4f07",
          "transactionIndex": "0x90",
          "logIndex": "0x1fe",
          "removed": false
        }
      ],
      "logsBloom": "0x00000000000000000000000000000200000000000000000000000000000000000080000000000000000000000000000000000000000080000000000000000000000000000000000000000000000000000000000000000000000000000000000000000000000000000000000000000000000000000000000000000000000000000000000000000000000000000000000000000000000000000000000000000000000080000000000000000000000000000000000000000000000000000000000000000000000000000000000000000060000000000000000000000000000000000000000000000000000000000000000000080000100000000800000000000000",
      "type": "0x0",
      "transactionHash": "0x715f7b5fe5e40d3fbb984664dcf464b86bfb9f9a1da40f2aa741b38826cb4f07",
      "transactionIndex": "0x90",
      "blockHash": "0x3bd2274ae6db52862bbc64e4e8a27493075e2b594ba0fae5c7df5c907478601d",
      "blockNumber": "0x3af2084",
      "gasUsed": "0xbb0f",
      "effectiveGasPrice": "0x5f5e100",
      "from": "0x84cd63a840274d267acb19e708d7f6298c315e75",
      "to": "0x6c900a1cf182aa5960493bf4646c9efc8eaed16b",
      "contractAddress": null
    },
    {
      "status": "0x1",
      "cumulativeGasUsed": "0x11f06a1",
      "logs": [
        {
          "address": "0x6c900a1cf182aa5960493bf4646c9efc8eaed16b",
          "topics": [
            "0x8920e7fbf160226a5498b7a18e7982c9136f38ff4bd292188b6b680b82734a11",
            "0x00000000000000000000000004c6bc2548b9f5c38be2be0902259d428f1fec2b"
          ],
          "data": "0x",
          "blockHash": "0x3bd2274ae6db52862bbc64e4e8a27493075e2b594ba0fae5c7df5c907478601d",
          "blockNumber": "0x3af2084",
          "transactionHash": "0x98abc7287e32804c17f5ba7a1efc63aa8449eab3c7f9cd271e92905ff2b3eb33",
          "transactionIndex": "0x91",
          "logIndex": "0x1ff",
          "removed": false
        }
      ],
      "logsBloom": "0x00000000000000000000000000000000000000000000000000000000000000000080000000000000000000000000000000000000000000000000040000000000000000000000000000000000000000000000000400000000000000000000000000000080000000000000000000000000000000000000000000000000000000000000000000000000000000000000000000000000000000000000000000000000000080000000000000000000000000000000000000000000000000000000000000000000000000000000000000000020000000000000000000000000000000000000000000000000080000000000000000000000100200000000000000000000",
      "type": "0x0",
      "transactionHash": "0x98abc7287e32804c17f5ba7a1efc63aa8449eab3c7f9cd271e92905ff2b3eb33",
      "transactionIndex": "0x91",
      "blockHash": "0x3bd2274ae6db52862bbc64e4e8a27493075e2b594ba0fae5c7df5c907478601d",
      "blockNumber": "0x3af2084",
      "gasUsed": "0xba7f",
      "effectiveGasPrice": "0x5f5e100",
      "from": "0x84cd63a840274d267acb19e708d7f6298c315e75",
      "to": "0x6c900a1cf182aa5960493bf4646c9efc8eaed16b",
      "contractAddress": null
    },
    {
      "status": "0x1",
      "cumulativeGasUsed": "0x11fbf32",
      "logs": [
        {
          "address": "0x6c900a1cf182aa5960493bf4646c9efc8eaed16b",
          "topics": [
            "0xb6433310f912a3c933878d5d91069804c98c436f9f30d5fb772a48a7c24f94c2",
            "0x00000000000000000000000073953a4dac5339b28e13c38294e758655e62dfde"
          ],
          "data": "0x",
          "blockHash": "0x3bd2274ae6db52862bbc64e4e8a27493075e2b594ba0fae5c7df5c907478601d",
          "blockNumber": "0x3af2084",
          "transactionHash": "0x54ad66191603972b1fad117fe7e081cb668cd883c90aedebf8ef158760d4bd15",
          "transactionIndex": "0x92",
          "logIndex": "0x200",
          "removed": false
        }
      ],
      "logsBloom": "0x00000000000000000000000000000000000000000000000000000000000000000082000000000000000000000000000000000000000000000000000000000000000000000000000000000000000000000000000000000000000000000000000000000000000000000020000000000000000000000000000000000000800000000000000000000000000000000000000000000000000000000000000000000000000080000000000000000000000000000000000000000000000000000000000000000000000000000000000000000000000000000000000000000000000000000200000000000000000000000000000000002000100080000000000000000000",
      "type": "0x0",
      "transactionHash": "0x54ad66191603972b1fad117fe7e081cb668cd883c90aedebf8ef158760d4bd15",
      "transactionIndex": "0x92",
      "blockHash": "0x3bd2274ae6db52862bbc64e4e8a27493075e2b594ba0fae5c7df5c907478601d",
      "blockNumber": "0x3af2084",
      "gasUsed": "0xb891",
      "effectiveGasPrice": "0x5f5e100",
      "from": "0x84cd63a840274d267acb19e708d7f6298c315e75",
      "to": "0x6c900a1cf182aa5960493bf4646c9efc8eaed16b",
      "contractAddress": null
    },
    {
      "status": "0x1",
      "cumulativeGasUsed": "0x1207755",
      "logs": [
        {
          "address": "0x6c900a1cf182aa5960493bf4646c9efc8eaed16b",
          "topics": [
            "0x37501759d2e15c019cdf73bd0f9ffb4ec814c3f482de7072e474207017f85d34",
            "0x000000000000000000000000ea827e472937abd1117f0d4104a76e173724a061"
          ],
          "data": "0x",
          "blockHash": "0x3bd2274ae6db52862bbc64e4e8a27493075e2b594ba0fae5c7df5c907478601d",
          "blockNumber": "0x3af2084",
          "transactionHash": "0xf3967cffdc2060010702a5adc77deebe486f03b423fb0506a3c088c70062018b",
          "transactionIndex": "0x93",
          "logIndex": "0x201",
          "removed": false
        }
      ],
      "logsBloom": "0x00000000000000000000000200000000000000000000000000000000000000000080000000000000000000000000000000000000000000000000000000000000000000002000000000000000000000000000000000000000000000000000000000000000000000000000000000000000000000000000000000000000000000000000000200000000000000000000000000000000000000000000000000000000000080000000000000000000000000000000000000000000000000000000000000000000000000000000000000000000000000000000000000000000080000000000000000000000000000000000000000800000100000000000400000000000",
      "type": "0x0",
      "transactionHash": "0xf3967cffdc2060010702a5adc77deebe486f03b423fb0506a3c088c70062018b",
      "transactionIndex": "0x93",
      "blockHash": "0x3bd2274ae6db52862bbc64e4e8a27493075e2b594ba0fae5c7df5c907478601d",
      "blockNumber": "0x3af2084",
      "gasUsed": "0xb823",
      "effectiveGasPrice": "0x5f5e100",
      "from": "0x84cd63a840274d267acb19e708d7f6298c315e75",
      "to": "0x6c900a1cf182aa5960493bf4646c9efc8eaed16b",
      "contractAddress": null
    },
    {
      "status": "0x1",
      "cumulativeGasUsed": "0x1213054",
      "logs": [
        {
          "address": "0x6c900a1cf182aa5960493bf4646c9efc8eaed16b",
          "topics": [
            "0x7d3ca866b4d9fb3ab4fd9e0e2f2446e5371ea1d2295ff7503d35bcfb619021f5",
            "0x000000000000000000000000d82ef4be9e6d037140bd54afa04be983673637fb"
          ],
          "data": "0x",
          "blockHash": "0x3bd2274ae6db52862bbc64e4e8a27493075e2b594ba0fae5c7df5c907478601d",
          "blockNumber": "0x3af2084",
          "transactionHash": "0xbcc335ef27f309f916a8130465822d806ed68d581a633908d0b5fc4a4168eb13",
          "transactionIndex": "0x94",
          "logIndex": "0x202",
          "removed": false
        }
      ],
      "logsBloom": "0x00000000000000000000000000000000000000000004000400000000000000800080000000000000000000000000000000000000000000000000000000000000000000000000000000000000000000000000000000000000000000000000000000000000000000000000000000000000000000000000000000000000000000000000000000000000000000000000000000000000000000000000000000000000000080000000001000000000000000000000000000000000000000000000000000000000000000200000000000000000000000000000000000000000000000000000000000000000000000000000000008000000100000000000000000000000",
      "type": "0x0",
      "transactionHash": "0xbcc335ef27f309f916a8130465822d806ed68d581a633908d0b5fc4a4168eb13",
      "transactionIndex": "0x94",
      "blockHash": "0x3bd2274ae6db52862bbc64e4e8a27493075e2b594ba0fae5c7df5c907478601d",
      "blockNumber": "0x3af2084",
      "gasUsed": "0xb8ff",
      "effectiveGasPrice": "0x5f5e100",
      "from": "0x84cd63a840274d267acb19e708d7f6298c315e75",
      "to": "0x6c900a1cf182aa5960493bf4646c9efc8eaed16b",
      "contractAddress": null
    },
    {
      "status": "0x1",
      "cumulativeGasUsed": "0x121eab3",
      "logs": [
        {
          "address": "0x6c900a1cf182aa5960493bf4646c9efc8eaed16b",
          "topics": [
            "0x4ea975357911696be8cdf2f5429d007c7b01d8e182ba9701ccf9e92a95845162",
            "0x00000000000000000000000081dad3af7edcf1026fe18977172fb6e24f3cf7d0"
          ],
          "data": "0x",
          "blockHash": "0x3bd2274ae6db52862bbc64e4e8a27493075e2b594ba0fae5c7df5c907478601d",
          "blockNumber": "0x3af2084",
          "transactionHash": "0x337515d3a743d8b249baf4a6323e73dae97f63ba760420f7a7023d0e3e57832a",
          "transactionIndex": "0x95",
          "logIndex": "0x203",
          "removed": false
        }
      ],
      "logsBloom": "0x00000000000000000000000000000000000000000000000000000000000000000080000000000000000000000000000000000000000000000400000000000000000000000000000000000000000000000000000000000000000000000000000000000000000000000000000000101000000000000000000000000000000000000008000000000000200000000000000000000000000000000000000000000000000080000000000000000000000000000000000000000000000000000000000000000000000000000000000000000000000000000000000000000000000002000000000000000000000000000000000000000000100000000000000000000000",
      "type": "0x0",
      "transactionHash": "0x337515d3a743d8b249baf4a6323e73dae97f63ba760420f7a7023d0e3e57832a",
      "transactionIndex": "0x95",
      "blockHash": "0x3bd2274ae6db52862bbc64e4e8a27493075e2b594ba0fae5c7df5c907478601d",
      "blockNumber": "0x3af2084",
      "gasUsed": "0xba5f",
      "effectiveGasPrice": "0x5f5e100",
      "from": "0x84cd63a840274d267acb19e708d7f6298c315e75",
      "to": "0x6c900a1cf182aa5960493bf4646c9efc8eaed16b",
      "contractAddress": null
    },
    {
      "status": "0x1",
      "cumulativeGasUsed": "0x122a5ac",
      "logs": [
        {
          "address": "0x6c900a1cf182aa5960493bf4646c9efc8eaed16b",
          "topics": [
            "0x589625f9cfc2d3cd7ebf57456c459307a31379d06884aecee9bf1bc87a36984a",
            "0x000000000000000000000000a573ccf8332a5b1e830ea04a87856a28c99d9b53"
          ],
          "data": "0x",
          "blockHash": "0x3bd2274ae6db52862bbc64e4e8a27493075e2b594ba0fae5c7df5c907478601d",
          "blockNumber": "0x3af2084",
          "transactionHash": "0x00431b34461f99dd7f7aba6132571cec8f8d103c7131759dc3f7e72b0ffd29d6",
          "transactionIndex": "0x96",
          "logIndex": "0x204",
          "removed": false
        }
      ],
      "logsBloom": "0x00000000000002000000000000000000000000000000000000000000000000000080000000000000000000000000000000000000000000000000000000000000000020000000000000000000000000004000000000000000000000000000000000000000000000000000000000000000000000000100000000000000000000000000000000000000000000000000000000000800000000000000000000000000000080000000000000000000000000000000000000000000000000000000000000000008000000000000000000000000000000000000000000000000000000000000000000000000000000000000000000000000100000000000000000000000",
      "type": "0x0",
      "transactionHash": "0x00431b34461f99dd7f7aba6132571cec8f8d103c7131759dc3f7e72b0ffd29d6",
      "transactionIndex": "0x96",
      "blockHash": "0x3bd2274ae6db52862bbc64e4e8a27493075e2b594ba0fae5c7df5c907478601d",
      "blockNumber": "0x3af2084",
      "gasUsed": "0xbaf9",
      "effectiveGasPrice": "0x5f5e100",
      "from": "0x84cd63a840274d267acb19e708d7f6298c315e75",
      "to": "0x6c900a1cf182aa5960493bf4646c9efc8eaed16b",
      "contractAddress": null
    },
    {
      "status": "0x1",
      "cumulativeGasUsed": "0x16a5938",
      "logs": [
        {
          "address": "0x6c900a1cf182aa5960493bf4646c9efc8eaed16b",
          "topics": [
            "0x611c62009a5cc6657049d1a514e39e102d23e7fb7b4ad8d5910a6970a0da9515",
            "0x0000000000000000000000001357c546ce8cd529a1914e53f98405e1ebfbfc53"
          ],
          "data": "0x",
          "blockHash": "0x8cb62af8a60b74c0fbd27bb2258887f9f1c3a5ae7a62ce57653f14b2612a1f12",
          "blockNumber": "0x3af2085",
          "transactionHash": "0xad092cea881189068cdd4c47257377d015d213654890235a8e64e12109b2af62",
          "transactionIndex": "0x41",
          "logIndex": "0x34b",
          "removed": false
        }
      ],
      "logsBloom": "0x00000000000000000000000000000000000000002000000000000000000000000080000000000000000000000000000000000000000000000000000000000000000040000000000000000000000000000000000000000000000000000000000000000000000000000000000000000004000000000000000000000000000000000000000000000000000000000000000000000000000000000000000000000000000880000000000000000000000000000000000000000000000000000000000000000000000000000000000000000000000000000000000000000000000000000000000000000000000000000000040000000000100000020000000000000000",
      "type": "0x0",
      "transactionHash": "0xad092cea881189068cdd4c47257377d015d213654890235a8e64e12109b2af62",
      "transactionIndex": "0x41",
      "blockHash": "0x8cb62af8a60b74c0fbd27bb2258887f9f1c3a5ae7a62ce57653f14b2612a1f12",
      "blockNumber": "0x3af2085",
      "gasUsed": "0xb92b",
      "effectiveGasPrice": "0x5f5e100",
      "from": "0x84cd63a840274d267acb19e708d7f6298c315e75",
      "to": "0x6c900a1cf182aa5960493bf4646c9efc8eaed16b",
      "contractAddress": null
    },
    {
      "status": "0x1",
      "cumulativeGasUsed": "0x16b12de",
      "logs": [
        {
          "address": "0x6c900a1cf182aa5960493bf4646c9efc8eaed16b",
          "topics": [
            "0xeda44c694e75c8161562f6179238b37a8daa291b6b2229613ed903ed92ab2d3d",
            "0x000000000000000000000000cd6bad326c68ba4f4c07b2d3f9c945364e56840c"
          ],
          "data": "0x",
          "blockHash": "0x8cb62af8a60b74c0fbd27bb2258887f9f1c3a5ae7a62ce57653f14b2612a1f12",
          "blockNumber": "0x3af2085",
          "transactionHash": "0xe5c422d04b7637b60aaa3928b4dff372cc69c7cded8024e14f5f77749f4ed622",
          "transactionIndex": "0x42",
          "logIndex": "0x34c",
          "removed": false
        }
      ],
      "logsBloom": "0x00000000000000000800000000000000000000100000000800000000000000000080000000000000000000000000000000000000000000000000000000000000000000000000000000000000000000000000000200000000000000000000000000000000000000000000000000000000000000000000000000000000000000000000002000000000000000000000000000000000000000000000000000000000000080000000000000000000000000000000000000000000000000000000000000000000000000000000000000000000040000000000000000000000000000000000000000000000000000000000000000000000100000000000000000000000",
      "type": "0x0",
      "transactionHash": "0xe5c422d04b7637b60aaa3928b4dff372cc69c7cded8024e14f5f77749f4ed622",
      "transactionIndex": "0x42",
      "blockHash": "0x8cb62af8a60b74c0fbd27bb2258887f9f1c3a5ae7a62ce57653f14b2612a1f12",
      "blockNumber": "0x3af2085",
      "gasUsed": "0xb9a6",
      "effectiveGasPrice": "0x5f5e100",
      "from": "0x84cd63a840274d267acb19e708d7f6298c315e75",
      "to": "0x6c900a1cf182aa5960493bf4646c9efc8eaed16b",
      "contractAddress": null
    },
    {
      "status": "0x1",
      "cumulativeGasUsed": "0x16b8976",
      "logs": [
        {
          "address": "0x6c900a1cf182aa5960493bf4646c9efc8eaed16b",
          "topics": [
            "0xb62a30fb8f7c73a0e4bc061efea54bc34145e5553d3eefa0695e6c29357de434",
            "0x0000000000000000000000008878a235d36f8a44f53d87654fdfb0e3c5b2c791"
          ],
          "data": "0x",
          "blockHash": "0x8cb62af8a60b74c0fbd27bb2258887f9f1c3a5ae7a62ce57653f14b2612a1f12",
          "blockNumber": "0x3af2085",
          "transactionHash": "0x959dd0939bea5e393c360be2f2bb9a7666370aae5d6b3a2350c3e0b1d649c9a1",
          "transactionIndex": "0x43",
          "logIndex": "0x34d",
          "removed": false
        }
      ],
      "logsBloom": "0x00000000000000000000000000000000000001000000000000000000000000000080000000000000000000000000000001000000000000000000000000000000000000000000000000000000000000000000000000000000000000000000000000000000000000000000000000000000000000000000000000000000000000000000000000000000000000000000000002000000000000000000000000000000000080000000000000000000000000000100000000000000000000000000000000000000000000000000000000000000000000000000000000000000000000000000000000000000000000000000004000000000180000000000000000000000",
      "type": "0x0",
      "transactionHash": "0x959dd0939bea5e393c360be2f2bb9a7666370aae5d6b3a2350c3e0b1d649c9a1",
      "transactionIndex": "0x43",
      "blockHash": "0x8cb62af8a60b74c0fbd27bb2258887f9f1c3a5ae7a62ce57653f14b2612a1f12",
      "blockNumber": "0x3af2085",
      "gasUsed": "0x7698",
      "effectiveGasPrice": "0x5f5e100",
      "from": "0x84cd63a840274d267acb19e708d7f6298c315e75",
      "to": "0x6c900a1cf182aa5960493bf4646c9efc8eaed16b",
      "contractAddress": null
    },
    {
      "status": "0x1",
      "cumulativeGasUsed": "0x16c5a4f",
      "logs": [
        {
          "address": "0x52a0ba2a7efb9519b73e671d924f03575fa64269",
          "topics": [
            "0x14662a0fccd762a05d5e1fa6afdd204554c4cf90fe58b5c5947f664fb71925f5",
            "0x0000000000000000000000006c900a1cf182aa5960493bf4646c9efc8eaed16b",
            "0x0000000000000000000000001a98769b8034d400745cc658dc204cd079de36fa"
          ],
          "data": "0x",
          "blockHash": "0x8cb62af8a60b74c0fbd27bb2258887f9f1c3a5ae7a62ce57653f14b2612a1f12",
          "blockNumber": "0x3af2085",
          "transactionHash": "0x68516e43931ad8b0ca229590c0941fb1d807c4156d31ef5363b8dcacd2d661f5",
          "transactionIndex": "0x44",
          "logIndex": "0x34e",
          "removed": false
        }
      ],
      "logsBloom": "0x04002000000000000000000000000000000000000000000000000004000000000008000000000000000000000000000000000000000000000000000000000000000000000000000000000000000000000000000000000000000000000000000000000000000000000000000000000000000000000000000000000000000000000000000000000000000000001000000000000000000000000000000000001002000000000000000000000000000000008040000000000000000000000000000000000000000000000000000000000000000000000000000000000080000000000000000000000000000000400000000000000000000100000000000000000000",
      "type": "0x0",
      "transactionHash": "0x68516e43931ad8b0ca229590c0941fb1d807c4156d31ef5363b8dcacd2d661f5",
      "transactionIndex": "0x44",
      "blockHash": "0x8cb62af8a60b74c0fbd27bb2258887f9f1c3a5ae7a62ce57653f14b2612a1f12",
      "blockNumber": "0x3af2085",
      "gasUsed": "0xd0d9",
      "effectiveGasPrice": "0x5f5e100",
      "from": "0x84cd63a840274d267acb19e708d7f6298c315e75",
      "to": "0x52a0ba2a7efb9519b73e671d924f03575fa64269",
      "contractAddress": null
    },
    {
      "status": "0x1",
      "cumulativeGasUsed": "0x16d2afc",
      "logs": [
        {
          "address": "0x04c6bc2548b9f5c38be2be0902259d428f1fec2b",
          "topics": [
            "0x14662a0fccd762a05d5e1fa6afdd204554c4cf90fe58b5c5947f664fb71925f5",
            "0x0000000000000000000000006c900a1cf182aa5960493bf4646c9efc8eaed16b",
            "0x0000000000000000000000001a98769b8034d400745cc658dc204cd079de36fa"
          ],
          "data": "0x",
          "blockHash": "0x8cb62af8a60b74c0fbd27bb2258887f9f1c3a5ae7a62ce57653f14b2612a1f12",
          "blockNumber": "0x3af2085",
          "transactionHash": "0x86864adc0b32580730c887d8ef609215b9b52143f37ea483eabc7252ae3eab4f",
          "transactionIndex": "0x45",
          "logIndex": "0x34f",
          "removed": false
        }
      ],
      "logsBloom": "0x04000000000000000000000000000000000000000000001000000004000000000008000000000000000000000000000000000000000000004000000000000000000000080000000000000000000000000000000000000000000000000000000000000000000000000000000000000000000000000000000000000000000000000000000000000000000000000000000000000000000000000000000000001002000000000000000000000000000000008000000000000000000000000000000000000000000000000000000000000000000000000000000000000080000000000000000000000000000000400000000000000000000100000000000000000000",
      "type": "0x0",
      "transactionHash": "0x86864adc0b32580730c887d8ef609215b9b52143f37ea483eabc7252ae3eab4f",
      "transactionIndex": "0x45",
      "blockHash": "0x8cb62af8a60b74c0fbd27bb2258887f9f1c3a5ae7a62ce57653f14b2612a1f12",
      "blockNumber": "0x3af2085",
      "gasUsed": "0xd0ad",
      "effectiveGasPrice": "0x5f5e100",
      "from": "0x84cd63a840274d267acb19e708d7f6298c315e75",
      "to": "0x04c6bc2548b9f5c38be2be0902259d428f1fec2b",
      "contractAddress": null
    },
    {
      "status": "0x1",
      "cumulativeGasUsed": "0x16de4e9",
      "logs": [
        {
          "address": "0x73953a4dac5339b28e13c38294e758655e62dfde",
          "topics": [
            "0x45e919947eac4ba070dccb2545cf1e7e330fd110330232d74a6996e9e2308f24",
            "0x0000000000000000000000006c900a1cf182aa5960493bf4646c9efc8eaed16b"
          ],
          "data": "0x",
          "blockHash": "0x8cb62af8a60b74c0fbd27bb2258887f9f1c3a5ae7a62ce57653f14b2612a1f12",
          "blockNumber": "0x3af2085",
          "transactionHash": "0xfe6475ba2c10d26415aa80c2df0ec3c5f6a7affdb28afe912ece1b71e0408eb2",
          "transactionIndex": "0x46",
          "logIndex": "0x350",
          "removed": false
        }
      ],
      "logsBloom": "0x00000000000000000000000000000000000000000000000000000000000000000008000000000000000000000000000000000000000000000000000000000000000000000000000000000000000000000000000000000000000000008000000000000000000000000000000000000000000000000000000000001000000000000000800000000008000000000000000000000000000000000000000000000000000000000000000000000000000000000000000000000000000000000000000000000000000000000000000008000000000000000000000000000080000000000000000000000000000000400000000008000000000000000000000000000000",
      "type": "0x0",
      "transactionHash": "0xfe6475ba2c10d26415aa80c2df0ec3c5f6a7affdb28afe912ece1b71e0408eb2",
      "transactionIndex": "0x46",
      "blockHash": "0x8cb62af8a60b74c0fbd27bb2258887f9f1c3a5ae7a62ce57653f14b2612a1f12",
      "blockNumber": "0x3af2085",
      "gasUsed": "0xb9ed",
      "effectiveGasPrice": "0x5f5e100",
      "from": "0x84cd63a840274d267acb19e708d7f6298c315e75",
      "to": "0x73953a4dac5339b28e13c38294e758655e62dfde",
      "contractAddress": null
    },
    {
      "status": "0x1",
      "cumulativeGasUsed": "0x1838539",
      "logs": [],
      "logsBloom": "0x00000000000000000000000000000000000000000000000000000000000000000000000000000000000000000000000000000000000000000000000000000000000000000000000000000000000000000000000000000000000000000000000000000000000000000000000000000000000000000000000000000000000000000000000000000000000000000000000000000000000000000000000000000000000000000000000000000000000000000000000000000000000000000000000000000000000000000000000000000000000000000000000000000000000000000000000000000000000000000000000000000000000000000000000000000000",
      "type": "0x0",
      "transactionHash": "0x4834de3b389792f78a36ba199f32d438512c77929a3c74021ef5464b62aeee6f",
      "transactionIndex": "0x4d",
      "blockHash": "0x8cb62af8a60b74c0fbd27bb2258887f9f1c3a5ae7a62ce57653f14b2612a1f12",
      "blockNumber": "0x3af2085",
      "gasUsed": "0xb4ca",
      "effectiveGasPrice": "0x5f5e100",
      "from": "0x84cd63a840274d267acb19e708d7f6298c315e75",
      "to": "0xea827e472937abd1117f0d4104a76e173724a061",
      "contractAddress": null
    },
    {
      "status": "0x1",
      "cumulativeGasUsed": "0x185f684",
      "logs": [
        {
          "address": "0xd82ef4be9e6d037140bd54afa04be983673637fb",
          "topics": [
            "0x45e919947eac4ba070dccb2545cf1e7e330fd110330232d74a6996e9e2308f24",
            "0x0000000000000000000000006c900a1cf182aa5960493bf4646c9efc8eaed16b"
          ],
          "data": "0x",
          "blockHash": "0x8cb62af8a60b74c0fbd27bb2258887f9f1c3a5ae7a62ce57653f14b2612a1f12",
          "blockNumber": "0x3af2085",
          "transactionHash": "0xe6b309e7d3137f19b1668ade8cf2820844b65ea9b79a305b2745ae03464c2189",
          "transactionIndex": "0x51",
          "logIndex": "0x386",
          "removed": false
        }
      ],
      "logsBloom": "0x00010000000000000000000000000000000000000000000000000000000000000008000000000000000000000000000000000000000000000000000000000000000000000000000000000000000000000000000000000000000000008000000000000000000000000000000000000000000000000000000000001000000000000000000000000000000000000000000000000000000000000000000000000000000000000000000000000000000000000000000000000000000000000000040000000000000000000000000000000000000000000000000000000080000000000000000000000000010000400000000008000000000000000000000000000000",
      "type": "0x0",
      "transactionHash": "0xe6b309e7d3137f19b1668ade8cf2820844b65ea9b79a305b2745ae03464c2189",
      "transactionIndex": "0x51",
      "blockHash": "0x8cb62af8a60b74c0fbd27bb2258887f9f1c3a5ae7a62ce57653f14b2612a1f12",
      "blockNumber": "0x3af2085",
      "gasUsed": "0xb98f",
      "effectiveGasPrice": "0x5f5e100",
      "from": "0x84cd63a840274d267acb19e708d7f6298c315e75",
      "to": "0xd82ef4be9e6d037140bd54afa04be983673637fb",
      "contractAddress": null
    },
    {
      "status": "0x1",
      "cumulativeGasUsed": "0x186b0fc",
      "logs": [
        {
          "address": "0x81dad3af7edcf1026fe18977172fb6e24f3cf7d0",
          "topics": [
            "0x45e919947eac4ba070dccb2545cf1e7e330fd110330232d74a6996e9e2308f24",
            "0x0000000000000000000000006c900a1cf182aa5960493bf4646c9efc8eaed16b"
          ],
          "data": "0x",
          "blockHash": "0x8cb62af8a60b74c0fbd27bb2258887f9f1c3a5ae7a62ce57653f14b2612a1f12",
          "blockNumber": "0x3af2085",
          "transactionHash": "0x7be9b764b69c299ebb4e814d4a6c4418dd3471df7c41464323524bb6379888d3",
          "transactionIndex": "0x52",
          "logIndex": "0x387",
          "removed": false
        }
      ],
      "logsBloom": "0x00000000000000000000000000000000000000000000000000000000000000000008000000000000000000000000000000000000000000000000000000000000000000000000000400000000000000000000000000000000000000008000000000000000000000000000000000000000000000000000000000001000000000000000000000000000000000000000000000002000000000000008000000000000000000000000000000000000000000000000000000000000000000000000000000000000000000000000000000000000000000000000000000000080000000000000000000000000000000400000000008000000000000000000000000000000",
      "type": "0x0",
      "transactionHash": "0x7be9b764b69c299ebb4e814d4a6c4418dd3471df7c41464323524bb6379888d3",
      "transactionIndex": "0x52",
      "blockHash": "0x8cb62af8a60b74c0fbd27bb2258887f9f1c3a5ae7a62ce57653f14b2612a1f12",
      "blockNumber": "0x3af2085",
      "gasUsed": "0xba78",
      "effectiveGasPrice": "0x5f5e100",
      "from": "0x84cd63a840274d267acb19e708d7f6298c315e75",
      "to": "0x81dad3af7edcf1026fe18977172fb6e24f3cf7d0",
      "contractAddress": null
    },
    {
      "status": "0x1",
      "cumulativeGasUsed": "0x18769d7",
      "logs": [
        {
          "address": "0xa573ccf8332a5b1e830ea04a87856a28c99d9b53",
          "topics": [
            "0x45e919947eac4ba070dccb2545cf1e7e330fd110330232d74a6996e9e2308f24",
            "0x0000000000000000000000006c900a1cf182aa5960493bf4646c9efc8eaed16b"
          ],
          "data": "0x",
          "blockHash": "0x8cb62af8a60b74c0fbd27bb2258887f9f1c3a5ae7a62ce57653f14b2612a1f12",
          "blockNumber": "0x3af2085",
          "transactionHash": "0xade65c165de5e1f239dc5332e92ba5810d312d689eb3c044fcf874062e1e8574",
          "transactionIndex": "0x53",
          "logIndex": "0x388",
          "removed": false
        }
      ],
      "logsBloom": "0x00000000000000000000000000000000000000000000000000000000000000000008000000000000000000000000000000000000000000000000000000000000000000800000000000000000000000000000000000000000000000008000000000000000000000000000000000000000000000000000000000001000000000000000000000000000000000000000000000000000000000000000000000000000000004000000000000000000000000000000000000000000000000000000000000000000000000000000000000000000000000400000000000000080000000000000000000000000000000400000000008000000000000000000000000000000",
      "type": "0x0",
      "transactionHash": "0xade65c165de5e1f239dc5332e92ba5810d312d689eb3c044fcf874062e1e8574",
      "transactionIndex": "0x53",
      "blockHash": "0x8cb62af8a60b74c0fbd27bb2258887f9f1c3a5ae7a62ce57653f14b2612a1f12",
      "blockNumber": "0x3af2085",
      "gasUsed": "0xb8db",
      "effectiveGasPrice": "0x5f5e100",
      "from": "0x84cd63a840274d267acb19e708d7f6298c315e75",
      "to": "0xa573ccf8332a5b1e830ea04a87856a28c99d9b53",
      "contractAddress": null
    },
    {
      "status": "0x1",
      "cumulativeGasUsed": "0x188ee03",
      "logs": [],
      "logsBloom": "0x00000000000000000000000000000000000000000000000000000000000000000000000000000000000000000000000000000000000000000000000000000000000000000000000000000000000000000000000000000000000000000000000000000000000000000000000000000000000000000000000000000000000000000000000000000000000000000000000000000000000000000000000000000000000000000000000000000000000000000000000000000000000000000000000000000000000000000000000000000000000000000000000000000000000000000000000000000000000000000000000000000000000000000000000000000000",
      "type": "0x0",
      "transactionHash": "0x37a0600e132b09a2993895392ce4e0ae89cdf59833100610de2bcb2c8916b05c",
      "transactionIndex": "0x54",
      "blockHash": "0x8cb62af8a60b74c0fbd27bb2258887f9f1c3a5ae7a62ce57653f14b2612a1f12",
      "blockNumber": "0x3af2085",
      "gasUsed": "0x1842c",
      "effectiveGasPrice": "0x5f5e100",
      "from": "0x84cd63a840274d267acb19e708d7f6298c315e75",
      "to": "0x1357c546ce8cd529a1914e53f98405e1ebfbfc53",
      "contractAddress": null
    },
    {
      "status": "0x1",
      "cumulativeGasUsed": "0x189a2f6",
      "logs": [],
      "logsBloom": "0x00000000000000000000000000000000000000000000000000000000000000000000000000000000000000000000000000000000000000000000000000000000000000000000000000000000000000000000000000000000000000000000000000000000000000000000000000000000000000000000000000000000000000000000000000000000000000000000000000000000000000000000000000000000000000000000000000000000000000000000000000000000000000000000000000000000000000000000000000000000000000000000000000000000000000000000000000000000000000000000000000000000000000000000000000000000",
      "type": "0x0",
      "transactionHash": "0x1ced61e164f91d113edbea39b86f807decafad3e4dccc861c54b94c3df276518",
      "transactionIndex": "0x55",
      "blockHash": "0x8cb62af8a60b74c0fbd27bb2258887f9f1c3a5ae7a62ce57653f14b2612a1f12",
      "blockNumber": "0x3af2085",
      "gasUsed": "0xb4f3",
      "effectiveGasPrice": "0x5f5e100",
      "from": "0x84cd63a840274d267acb19e708d7f6298c315e75",
      "to": "0xcd6bad326c68ba4f4c07b2d3f9c945364e56840c",
      "contractAddress": null
    },
    {
      "status": "0x1",
      "cumulativeGasUsed": "0x18a60e0",
      "logs": [
        {
          "address": "0xcd6bad326c68ba4f4c07b2d3f9c945364e56840c",
          "topics": [
            "0x5fe3a0cb9aeae856eac34445ace9544f3e15c21fa6f9bffeca60d662a690ca1b",
            "0x000000000000000000000000a573ccf8332a5b1e830ea04a87856a28c99d9b53"
          ],
          "data": "0x0000000000000000000000000000000000000000000000000000000000000001",
          "blockHash": "0x8cb62af8a60b74c0fbd27bb2258887f9f1c3a5ae7a62ce57653f14b2612a1f12",
          "blockNumber": "0x3af2085",
          "transactionHash": "0x6ce213de257e3e1869e4dd461a304501cd016a233a48b7ab0344bf78a34cefa7",
          "transactionIndex": "0x56",
          "logIndex": "0x389",
          "removed": false
        }
      ],
      "logsBloom": "0x00000000000000000000000000000000000000000000000000000000000000000001000000000000000000000001000000000000000000000000000000000000000000000800000000000000000000004000000000000000000000000000000000000000000000000000000000008000000000000100000000000000000000000000000000000000000000000000000000000000000000000000000000000000000000000000000000000000000000000000000000000000000000000000000000000008000000000000020000000000000000000000000000000000000000000000000000000000000000020000000000000000000000000000000000000000",
      "type": "0x0",
      "transactionHash": "0x6ce213de257e3e1869e4dd461a304501cd016a233a48b7ab0344bf78a34cefa7",
      "transactionIndex": "0x56",
      "blockHash": "0x8cb62af8a60b74c0fbd27bb2258887f9f1c3a5ae7a62ce57653f14b2612a1f12",
      "blockNumber": "0x3af2085",
      "gasUsed": "0xbdea",
      "effectiveGasPrice": "0x5f5e100",
      "from": "0x84cd63a840274d267acb19e708d7f6298c315e75",
      "to": "0xcd6bad326c68ba4f4c07b2d3f9c945364e56840c",
      "contractAddress": null
    },
    {
      "status": "0x1",
      "cumulativeGasUsed": "0x18f8288",
      "logs": [
        {
          "address": "0xcd6bad326c68ba4f4c07b2d3f9c945364e56840c",
          "topics": [
            "0x5fe3a0cb9aeae856eac34445ace9544f3e15c21fa6f9bffeca60d662a690ca1b",
            "0x0000000000000000000000001357c546ce8cd529a1914e53f98405e1ebfbfc53"
          ],
          "data": "0x0000000000000000000000000000000000000000000000000000000000000001",
          "blockHash": "0x8cb62af8a60b74c0fbd27bb2258887f9f1c3a5ae7a62ce57653f14b2612a1f12",
          "blockNumber": "0x3af2085",
          "transactionHash": "0xb19f39745df2010d745b190ffce63439a612931eed626e0cf3728ef8d2ebe21e",
          "transactionIndex": "0x59",
          "logIndex": "0x395",
          "removed": false
        }
      ],
      "logsBloom": "0x00000000000000000000000000000000000000000000000000000000000000000001000000000000000000000001000000000000000000000000000000000000000000000800000000000000000000000000000000000000000000000000000000000000000000000000000000008004000000000000000000000000000000000000000000000000000000000000000000000000000000000000000000000000000800000000000000000000000000000000000000000000000000000000000000000000000000000000020000000000000000000000000000000000000000000000000000000000000000020000040000000000000000000000000000000000",
      "type": "0x0",
      "transactionHash": "0xb19f39745df2010d745b190ffce63439a612931eed626e0cf3728ef8d2ebe21e",
      "transactionIndex": "0x59",
      "blockHash": "0x8cb62af8a60b74c0fbd27bb2258887f9f1c3a5ae7a62ce57653f14b2612a1f12",
      "blockNumber": "0x3af2085",
      "gasUsed": "0xbdea",
      "effectiveGasPrice": "0x5f5e100",
      "from": "0x84cd63a840274d267acb19e708d7f6298c315e75",
      "to": "0xcd6bad326c68ba4f4c07b2d3f9c945364e56840c",
      "contractAddress": null
    }
  ],
  "libraries": [],
  "pending": [],
  "returns": {},
  "timestamp": 1758355436,
  "chain": 56,
  "commit": "912109f"
}